{
  "contractName": "StudentCredentials",
  "abi": [
    {
      "inputs": [],
      "stateMutability": "nonpayable",
      "type": "constructor"
    },
    {
      "anonymous": false,
      "inputs": [
        {
          "indexed": true,
          "internalType": "uint256",
          "name": "credentialId",
          "type": "uint256"
        }
      ],
      "name": "CredentialDeleted",
      "type": "event"
    },
    {
      "anonymous": false,
      "inputs": [
        {
          "indexed": true,
          "internalType": "uint256",
          "name": "credentialId",
          "type": "uint256"
        },
        {
          "indexed": true,
          "internalType": "address",
          "name": "issuedTo",
          "type": "address"
        }
      ],
      "name": "CredentialIssued",
      "type": "event"
    },
    {
      "anonymous": false,
      "inputs": [
        {
          "indexed": true,
          "internalType": "uint256",
          "name": "credentialId",
          "type": "uint256"
        }
      ],
      "name": "CredentialRevoked",
      "type": "event"
    },
    {
      "anonymous": false,
      "inputs": [
        {
          "indexed": true,
          "internalType": "uint256",
          "name": "credentialId",
          "type": "uint256"
        }
      ],
      "name": "CredentialUpdated",
      "type": "event"
    },
    {
      "inputs": [],
      "name": "admin",
      "outputs": [
        {
          "internalType": "address",
          "name": "",
          "type": "address"
        }
      ],
      "stateMutability": "view",
      "type": "function",
      "constant": true
    },
    {
      "inputs": [],
      "name": "credentialCount",
      "outputs": [
        {
          "internalType": "uint256",
          "name": "",
          "type": "uint256"
        }
      ],
      "stateMutability": "view",
      "type": "function",
      "constant": true
    },
    {
      "inputs": [
        {
          "internalType": "uint256",
          "name": "",
          "type": "uint256"
        }
      ],
      "name": "credentials",
      "outputs": [
        {
          "internalType": "string",
          "name": "studentName",
          "type": "string"
        },
        {
          "internalType": "string",
          "name": "degree",
          "type": "string"
        },
        {
          "internalType": "string",
          "name": "institution",
          "type": "string"
        },
        {
          "internalType": "uint256",
          "name": "dateIssued",
          "type": "uint256"
        },
        {
          "internalType": "address",
          "name": "issuedTo",
          "type": "address"
        },
        {
          "internalType": "bool",
          "name": "valid",
          "type": "bool"
        }
      ],
      "stateMutability": "view",
      "type": "function",
      "constant": true
    },
    {
      "inputs": [
        {
          "internalType": "string",
          "name": "_studentName",
          "type": "string"
        },
        {
          "internalType": "string",
          "name": "_degree",
          "type": "string"
        },
        {
          "internalType": "string",
          "name": "_institution",
          "type": "string"
        },
        {
          "internalType": "address",
          "name": "_issuedTo",
          "type": "address"
        }
      ],
      "name": "issueCredential",
      "outputs": [],
      "stateMutability": "nonpayable",
      "type": "function"
    },
    {
      "inputs": [
        {
          "internalType": "uint256",
          "name": "_credentialId",
          "type": "uint256"
        },
        {
          "internalType": "string",
          "name": "_studentName",
          "type": "string"
        },
        {
          "internalType": "string",
          "name": "_degree",
          "type": "string"
        },
        {
          "internalType": "string",
          "name": "_institution",
          "type": "string"
        },
        {
          "internalType": "address",
          "name": "_issuedTo",
          "type": "address"
        }
      ],
      "name": "updateCredential",
      "outputs": [],
      "stateMutability": "nonpayable",
      "type": "function"
    },
    {
      "inputs": [
        {
          "internalType": "uint256",
          "name": "_credentialId",
          "type": "uint256"
        }
      ],
      "name": "revokeCredential",
      "outputs": [],
      "stateMutability": "nonpayable",
      "type": "function"
    },
    {
      "inputs": [
        {
          "internalType": "uint256",
          "name": "_credentialId",
          "type": "uint256"
        }
      ],
      "name": "deleteCredential",
      "outputs": [],
      "stateMutability": "nonpayable",
      "type": "function"
    },
    {
      "inputs": [
        {
          "internalType": "uint256",
          "name": "_credentialId",
          "type": "uint256"
        }
      ],
      "name": "verifyCredential",
      "outputs": [
        {
          "internalType": "string",
          "name": "studentName",
          "type": "string"
        },
        {
          "internalType": "string",
          "name": "degree",
          "type": "string"
        },
        {
          "internalType": "string",
          "name": "institution",
          "type": "string"
        },
        {
          "internalType": "uint256",
          "name": "dateIssued",
          "type": "uint256"
        },
        {
          "internalType": "address",
          "name": "issuedTo",
          "type": "address"
        },
        {
          "internalType": "bool",
          "name": "valid",
          "type": "bool"
        }
      ],
      "stateMutability": "view",
      "type": "function",
      "constant": true
    }
  ],
  "bytecode": "0x608060405234801561001057600080fd5b50336000806101000a81548173ffffffffffffffffffffffffffffffffffffffff021916908373ffffffffffffffffffffffffffffffffffffffff160217905550600060028190555061180d806100686000396000f3fe608060405234801561001057600080fd5b50600436106100885760003560e01c8063cd0e35b91161005b578063cd0e35b9146100fd578063e0574e3f1461011b578063f2a91b1c14610150578063f851a4401461018557610088565b80630134e7061461008d5780631b87278d146100a95780635e6620d1146100c55780639ba13765146100e1575b600080fd5b6100a760048036038101906100a29190610e47565b6101a3565b005b6100c360048036038101906100be9190610e47565b61038f565b005b6100df60048036038101906100da9190611018565b6104df565b005b6100fb60048036038101906100f691906110d3565b6106e4565b005b6101056108e5565b60405161011291906111b1565b60405180910390f35b61013560048036038101906101309190610e47565b6108eb565b60405161014796959493929190611275565b60405180910390f35b61016a60048036038101906101659190610e47565b610aec565b60405161017c96959493929190611275565b60405180910390f35b61018d610d7c565b60405161019a91906112eb565b60405180910390f35b60008054906101000a900473ffffffffffffffffffffffffffffffffffffffff1673ffffffffffffffffffffffffffffffffffffffff163373ffffffffffffffffffffffffffffffffffffffff1614610231576040517f08c379a000000000000000000000000000000000000000000000000000000000815260040161022890611378565b60405180910390fd5b600073ffffffffffffffffffffffffffffffffffffffff166001600083815260200190815260200160002060040160009054906101000a900473ffffffffffffffffffffffffffffffffffffffff1673ffffffffffffffffffffffffffffffffffffffff16036102d6576040517f08c379a00000000000000000000000000000000000000000000000000000000081526004016102cd906113e4565b60405180910390fd5b60016000828152602001908152602001600020600080820160006102fa9190610da0565b60018201600061030a9190610da0565b60028201600061031a9190610da0565b60038201600090556004820160006101000a81549073ffffffffffffffffffffffffffffffffffffffff02191690556004820160146101000a81549060ff02191690555050807f9ef82fff17318a7d1211b870cefae054181ecef0f248dc82c97a73e77643a1bc60405160405180910390a250565b60008054906101000a900473ffffffffffffffffffffffffffffffffffffffff1673ffffffffffffffffffffffffffffffffffffffff163373ffffffffffffffffffffffffffffffffffffffff161461041d576040517f08c379a000000000000000000000000000000000000000000000000000000000815260040161041490611378565b60405180910390fd5b6001600082815260200190815260200160002060040160149054906101000a900460ff16610480576040517f08c379a000000000000000000000000000000000000000000000000000000000815260040161047790611476565b60405180910390fd5b60006001600083815260200190815260200160002060040160146101000a81548160ff021916908315150217905550807f0d47d5695004d2a4180ebb40037756439184993a0d1c6d4a8ff3a6aa9325607460405160405180910390a250565b60008054906101000a900473ffffffffffffffffffffffffffffffffffffffff1673ffffffffffffffffffffffffffffffffffffffff163373ffffffffffffffffffffffffffffffffffffffff161461056d576040517f08c379a000000000000000000000000000000000000000000000000000000000815260040161056490611378565b60405180910390fd5b60016002600082825461058091906114c5565b925050819055506040518060c001604052808581526020018481526020018381526020014281526020018273ffffffffffffffffffffffffffffffffffffffff1681526020016001151581525060016000600254815260200190815260200160002060008201518160000190816105f79190611705565b50602082015181600101908161060d9190611705565b5060408201518160020190816106239190611705565b506060820151816003015560808201518160040160006101000a81548173ffffffffffffffffffffffffffffffffffffffff021916908373ffffffffffffffffffffffffffffffffffffffff16021790555060a08201518160040160146101000a81548160ff0219169083151502179055509050508073ffffffffffffffffffffffffffffffffffffffff166002547fbf94256c91da1335919ad62c5685e1dc105a64235fbbfd7a039ccedec4eb20e460405160405180910390a350505050565b60008054906101000a900473ffffffffffffffffffffffffffffffffffffffff1673ffffffffffffffffffffffffffffffffffffffff163373ffffffffffffffffffffffffffffffffffffffff1614610772576040517f08c379a000000000000000000000000000000000000000000000000000000000815260040161076990611378565b60405180910390fd5b600073ffffffffffffffffffffffffffffffffffffffff166001600087815260200190815260200160002060040160009054906101000a900473ffffffffffffffffffffffffffffffffffffffff1673ffffffffffffffffffffffffffffffffffffffff1603610817576040517f08c379a000000000000000000000000000000000000000000000000000000000815260040161080e906113e4565b60405180910390fd5b60006001600087815260200190815260200160002090508481600001908161083f9190611705565b50838160010190816108519190611705565b50828160020190816108639190611705565b50818160040160006101000a81548173ffffffffffffffffffffffffffffffffffffffff021916908373ffffffffffffffffffffffffffffffffffffffff160217905550428160030181905550857faf546e6879a109130d587e5ae972d905c080f1395212533857157316489f2c3460405160405180910390a2505050505050565b60025481565b600160205280600052604060002060009150905080600001805461090e90611528565b80601f016020809104026020016040519081016040528092919081815260200182805461093a90611528565b80156109875780601f1061095c57610100808354040283529160200191610987565b820191906000526020600020905b81548152906001019060200180831161096a57829003601f168201915b50505050509080600101805461099c90611528565b80601f01602080910402602001604051908101604052809291908181526020018280546109c890611528565b8015610a155780601f106109ea57610100808354040283529160200191610a15565b820191906000526020600020905b8154815290600101906020018083116109f857829003601f168201915b505050505090806002018054610a2a90611528565b80601f0160208091040260200160405190810160405280929190818152602001828054610a5690611528565b8015610aa35780601f10610a7857610100808354040283529160200191610aa3565b820191906000526020600020905b815481529060010190602001808311610a8657829003601f168201915b5050505050908060030154908060040160009054906101000a900473ffffffffffffffffffffffffffffffffffffffff16908060040160149054906101000a900460ff16905086565b6060806060600080600080600160008981526020019081526020016000206040518060c0016040529081600082018054610b2590611528565b80601f0160208091040260200160405190810160405280929190818152602001828054610b5190611528565b8015610b9e5780601f10610b7357610100808354040283529160200191610b9e565b820191906000526020600020905b815481529060010190602001808311610b8157829003601f168201915b50505050508152602001600182018054610bb790611528565b80601f0160208091040260200160405190810160405280929190818152602001828054610be390611528565b8015610c305780601f10610c0557610100808354040283529160200191610c30565b820191906000526020600020905b815481529060010190602001808311610c1357829003601f168201915b50505050508152602001600282018054610c4990611528565b80601f0160208091040260200160405190810160405280929190818152602001828054610c7590611528565b8015610cc25780601f10610c9757610100808354040283529160200191610cc2565b820191906000526020600020905b815481529060010190602001808311610ca557829003601f168201915b50505050508152602001600382015481526020016004820160009054906101000a900473ffffffffffffffffffffffffffffffffffffffff1673ffffffffffffffffffffffffffffffffffffffff1673ffffffffffffffffffffffffffffffffffffffff1681526020016004820160149054906101000a900460ff1615151515815250509050806000015181602001518260400151836060015184608001518560a001519650965096509650965096505091939550919395565b60008054906101000a900473ffffffffffffffffffffffffffffffffffffffff1681565b508054610dac90611528565b6000825580601f10610dbe5750610ddd565b601f016020900490600052602060002090810190610ddc9190610de0565b5b50565b5b80821115610df9576000816000905550600101610de1565b5090565b6000604051905090565b600080fd5b600080fd5b6000819050919050565b610e2481610e11565b8114610e2f57600080fd5b50565b600081359050610e4181610e1b565b92915050565b600060208284031215610e5d57610e5c610e07565b5b6000610e6b84828501610e32565b91505092915050565b600080fd5b600080fd5b6000601f19601f8301169050919050565b7f4e487b7100000000000000000000000000000000000000000000000000000000600052604160045260246000fd5b610ec782610e7e565b810181811067ffffffffffffffff82111715610ee657610ee5610e8f565b5b80604052505050565b6000610ef9610dfd565b9050610f058282610ebe565b919050565b600067ffffffffffffffff821115610f2557610f24610e8f565b5b610f2e82610e7e565b9050602081019050919050565b82818337600083830152505050565b6000610f5d610f5884610f0a565b610eef565b905082815260208101848484011115610f7957610f78610e79565b5b610f84848285610f3b565b509392505050565b600082601f830112610fa157610fa0610e74565b5b8135610fb1848260208601610f4a565b91505092915050565b600073ffffffffffffffffffffffffffffffffffffffff82169050919050565b6000610fe582610fba565b9050919050565b610ff581610fda565b811461100057600080fd5b50565b60008135905061101281610fec565b92915050565b6000806000806080858703121561103257611031610e07565b5b600085013567ffffffffffffffff8111156110505761104f610e0c565b5b61105c87828801610f8c565b945050602085013567ffffffffffffffff81111561107d5761107c610e0c565b5b61108987828801610f8c565b935050604085013567ffffffffffffffff8111156110aa576110a9610e0c565b5b6110b687828801610f8c565b92505060606110c787828801611003565b91505092959194509250565b600080600080600060a086880312156110ef576110ee610e07565b5b60006110fd88828901610e32565b955050602086013567ffffffffffffffff81111561111e5761111d610e0c565b5b61112a88828901610f8c565b945050604086013567ffffffffffffffff81111561114b5761114a610e0c565b5b61115788828901610f8c565b935050606086013567ffffffffffffffff81111561117857611177610e0c565b5b61118488828901610f8c565b925050608061119588828901611003565b9150509295509295909350565b6111ab81610e11565b82525050565b60006020820190506111c660008301846111a2565b92915050565b600081519050919050565b600082825260208201905092915050565b60005b838110156112065780820151818401526020810190506111eb565b60008484015250505050565b600061121d826111cc565b61122781856111d7565b93506112378185602086016111e8565b61124081610e7e565b840191505092915050565b61125481610fda565b82525050565b60008115159050919050565b61126f8161125a565b82525050565b600060c082019050818103600083015261128f8189611212565b905081810360208301526112a38188611212565b905081810360408301526112b78187611212565b90506112c660608301866111a2565b6112d3608083018561124b565b6112e060a0830184611266565b979650505050505050565b6000602082019050611300600083018461124b565b92915050565b7f4f6e6c792061646d696e2063616e20706572666f726d2074686973206163746960008201527f6f6e000000000000000000000000000000000000000000000000000000000000602082015250565b60006113626022836111d7565b915061136d82611306565b604082019050919050565b6000602082019050818103600083015261139181611355565b9050919050565b7f43726564656e7469616c20646f6573206e6f7420657869737400000000000000600082015250565b60006113ce6019836111d7565b91506113d982611398565b602082019050919050565b600060208201905081810360008301526113fd816113c1565b9050919050565b7f43726564656e7469616c20616c7265616479207265766f6b6564206f7220646f60008201527f6573206e6f742065786973740000000000000000000000000000000000000000602082015250565b6000611460602c836111d7565b915061146b82611404565b604082019050919050565b6000602082019050818103600083015261148f81611453565b9050919050565b7f4e487b7100000000000000000000000000000000000000000000000000000000600052601160045260246000fd5b60006114d082610e11565b91506114db83610e11565b92508282019050808211156114f3576114f2611496565b5b92915050565b7f4e487b7100000000000000000000000000000000000000000000000000000000600052602260045260246000fd5b6000600282049050600182168061154057607f821691505b602082108103611553576115526114f9565b5b50919050565b60008190508160005260206000209050919050565b60006020601f8301049050919050565b600082821b905092915050565b6000600883026115bb7fffffffffffffffffffffffffffffffffffffffffffffffffffffffffffffffff8261157e565b6115c5868361157e565b95508019841693508086168417925050509392505050565b6000819050919050565b60006116026115fd6115f884610e11565b6115dd565b610e11565b9050919050565b6000819050919050565b61161c836115e7565b61163061162882611609565b84845461158b565b825550505050565b600090565b611645611638565b611650818484611613565b505050565b5b818110156116745761166960008261163d565b600181019050611656565b5050565b601f8211156116b95761168a81611559565b6116938461156e565b810160208510156116a2578190505b6116b66116ae8561156e565b830182611655565b50505b505050565b600082821c905092915050565b60006116dc600019846008026116be565b1980831691505092915050565b60006116f583836116cb565b9150826002028217905092915050565b61170e826111cc565b67ffffffffffffffff81111561172757611726610e8f565b5b6117318254611528565b61173c828285611678565b600060209050601f83116001811461176f576000841561175d578287015190505b61176785826116e9565b8655506117cf565b601f19841661177d86611559565b60005b828110156117a557848901518255600182019150602085019450602081019050611780565b868310156117c257848901516117be601f8916826116cb565b8355505b6001600288020188555050505b50505050505056fea2646970667358221220e1fcd704e65d75472f668e3a632065af87eb63a9a38f1187e069cc38ca3d5a5664736f6c63430008130033",
  "immutableReferences": {},
  "source": "// SPDX-License-Identifier: MIT\npragma solidity ^0.8.19;\n\ncontract StudentCredentials {\n    struct Credential {\n        string studentName;\n        string degree;\n        string institution;\n        uint256 dateIssued;\n        address issuedTo;\n        bool valid;\n    }\n\n    address public admin;\n    mapping (uint256 => Credential) public credentials;\n    uint256 public credentialCount;\n\n    event CredentialIssued(uint256 indexed credentialId, address indexed issuedTo);\n    event CredentialUpdated(uint256 indexed credentialId);\n    event CredentialRevoked(uint256 indexed credentialId);\n    event CredentialDeleted(uint256 indexed credentialId);\n\n    constructor() {\n        admin = msg.sender;\n        credentialCount = 0;\n    }\n\n    modifier onlyAdmin() {\n        require(msg.sender == admin, \"Only admin can perform this action\");\n        _;\n    }\n\n    function issueCredential(\n        string memory _studentName,\n        string memory _degree,\n        string memory _institution,\n        address _issuedTo\n    ) public onlyAdmin {\n        credentialCount += 1;\n        credentials[credentialCount] = Credential({\n            studentName: _studentName,\n            degree: _degree,\n            institution: _institution,\n            dateIssued: block.timestamp,\n            issuedTo: _issuedTo,\n            valid: true\n        });\n        emit CredentialIssued(credentialCount, _issuedTo);\n    }\n\n    function updateCredential(\n        uint256 _credentialId,\n        string memory _studentName,\n        string memory _degree,\n        string memory _institution,\n        address _issuedTo\n    ) public onlyAdmin {\n        require(credentials[_credentialId].issuedTo != address(0), \"Credential does not exist\");\n        Credential storage cred = credentials[_credentialId];\n        cred.studentName = _studentName;\n        cred.degree = _degree;\n        cred.institution = _institution;\n        cred.issuedTo = _issuedTo;\n        cred.dateIssued = block.timestamp;\n        emit CredentialUpdated(_credentialId);\n    }\n\n    function revokeCredential(uint256 _credentialId) public onlyAdmin {\n        require(credentials[_credentialId].valid, \"Credential already revoked or does not exist\");\n        credentials[_credentialId].valid = false;\n        emit CredentialRevoked(_credentialId);\n    }\n\n    function deleteCredential(uint256 _credentialId) public onlyAdmin {\n        require(credentials[_credentialId].issuedTo != address(0), \"Credential does not exist\");\n        delete credentials[_credentialId];\n        emit CredentialDeleted(_credentialId);\n    }\n\n    function verifyCredential(uint256 _credentialId) public view returns (\n        string memory studentName,\n        string memory degree,\n        string memory institution,\n        uint256 dateIssued,\n        address issuedTo,\n        bool valid\n    ) {\n        Credential memory cred = credentials[_credentialId];\n        return (\n            cred.studentName,\n            cred.degree,\n            cred.institution,\n            cred.dateIssued,\n            cred.issuedTo,\n            cred.valid\n        );\n    }\n}\n",
  "sourcePath": "/Users/chiragjogi/PES/SEM-6/BlockChain/miniproject/student-credentials-dapp/contracts/StudentCredentials.sol",
  "compiler": {
    "name": "solc",
    "version": "0.8.19+commit.7dd6d404.Emscripten.clang"
  },
  "schemaVersion": "3.4.16",
  "updatedAt": "2025-04-22T11:51:15.093Z",
  "networkType": "ethereum",
  "devdoc": {
    "kind": "dev",
    "methods": {},
    "version": 1
  },
  "userdoc": {
    "kind": "user",
    "methods": {},
    "version": 1
  }
}